:020000040000FA
:0400000065EF06F0B2
:100800000000000000DCCFD1350000000000C01562
:100810003F6042A20D70A5EC363BAAB83F4F387638
:100820003F3CAA38338CBEBF350072313F1872315D
:100830003F4CBB31330EEADDB555B38A38610B3618
:10084000BBABAA2A3E42F1533E55326C3E05A38B08
:100850003EABAAAA3EB76DDB3E9A99193F6042A211
:100860000DCAF249710000804B0000803F0000C0BB
:0F0870003F00AAB83FC623F6B80040763F00000D
:100880008990898289848986340E076EF20EE82E5B
:10089000FED7072EFCD780B850EF04F052EF04F0DB
:1008A0005CEF04F0340E076EF20EE82EFED7072E32
:1008B000FCD7010E7DEF05F080BA61EF04F063EF25
:1008C00004F06DEF04F0340E076EF20EE82EFED742
:1008D000072EFCD7020E7DEF05F080BC72EF04F00E
:1008E00074EF04F07EEF04F0340E076EF20EE82E83
:1008F000FED7072EFCD7030E7DEF05F080BE83EFF9
:1009000004F085EF04F08FEF04F0340E076EF20E62
:10091000E82EFED7072EFCD70A0E7DEF05F0898062
:10092000899289848986340E076EF20EE82EFED7EE
:10093000072EFCD780B89FEF04F0A1EF04F0ABEFD7
:1009400004F0340E076EF20EE82EFED7072EFCD709
:10095000040E7DEF05F080BAB0EF04F0B2EF04F0C2
:10096000BCEF04F0340E076EF20EE82EFED7072E11
:10097000FCD7050E7DEF05F080BCC1EF04F0C3EF9E
:1009800004F0CDEF04F0340E076EF20EE82EFED721
:10099000072EFCD7060E7DEF05F080BED2EF04F0E7
:1009A000D4EF04F0DEEF04F0340E076EF20EE82E02
:1009B000FED7072EFCD70B0E7DEF05F089808982CC
:1009C00089948986340E076EF20EE82EFED7072E24
:1009D000FCD780B8EEEF04F0F0EF04F0FAEF04F08B
:1009E000340E076EF20EE82EFED7072EFCD7070E48
:1009F0007DEF05F080BAFFEF04F001EF05F00BEF9B
:100A000005F0340E076EF20EE82EFED7072EFCD747
:100A1000080E7DEF05F080BC10EF05F012EF05F039
:100A20001CEF05F0340E076EF20EE82EFED7072EEF
:100A3000FCD7090E7DEF05F080BE21EF05F023EF16
:100A400005F02DEF05F0340E076EF20EE82EFED7FE
:100A5000072EFCD70C0E7DEF05F0898089828984F2
:100A60008996340E076EF20EE82EFED7072EFCD7BD
:100A700080B83DEF05F03FEF05F049EF05F0340E8B
:100A8000076EF20EE82EFED7072EFCD70E0E7DEF76
:100A900005F080BA4EEF05F050EF05F05AEF05F083
:100AA000340E076EF20EE82EFED7072EFCD7000E8E
:100AB0007DEF05F080BC5FEF05F061EF05F06BEFB7
:100AC00005F0340E076EF20EE82EFED7072EFCD787
:100AD0000F0E7DEF05F080BE70EF05F072EF05F0B0
:100AE0007CEF05F0340E076EF20EE82EFED7072ECF
:100AF000FCD70D0E7DEF05F0780E120055EC06F0D8
:100B000040EC04F0086E0850D8A489EF05F08BEF94
:100B100005F08FEF05F0C00E8C6E80EF05F0080435
:100B2000D8A495EF05F097EF05F09BEF05F0F90ECF
:100B30008C6E80EF05F0020E0818D8A4A2EF05F025
:100B4000A4EF05F0A8EF05F0A40E8C6E80EF05F081
:100B5000030E0818D8A4AFEF05F0B1EF05F0B5EF1C
:100B600005F0B00E8C6E80EF05F0040E0818D8A4C6
:100B7000BCEF05F0BEEF05F0C2EF05F0990E8C6EEC
:100B800080EF05F0050E0818D8A4C9EF05F0CBEFEB
:100B900005F0CFEF05F0920E8C6E80EF05F0060E9B
:100BA0000818D8A4D6EF05F0D8EF05F0DCEF05F073
:100BB000820E8C6E80EF05F0070E0818D8A4E3EFC4
:100BC00005F0E5EF05F0E9EF05F0F80E8C6E80EF2B
:100BD00005F0080E0818D8A4F0EF05F0F2EF05F0C4
:100BE000F6EF05F0800E8C6E80EF05F0090E081808
:100BF000D8A4FDEF05F0FFEF05F003EF06F0980E27
:100C00008C6E80EF05F00A0E0818D8A40AEF06F0E3
:100C10000CEF06F010EF06F0880E8C6E80EF05F0FA
:100C20000B0E0818D8A417EF06F019EF06F01DEF09
:100C300006F0830E8C6E80EF05F00C0E0818D8A419
:100C400024EF06F026EF06F02AEF06F0A70E8C6ED2
:100C500080EF05F00D0E0818D8A431EF06F033EF41
:100C600006F037EF06F0A10E8C6E80EF05F00E0E49
:100C70000818D8A43EEF06F040EF06F044EF06F067
:100C8000860E8C6E80EF05F00F0E0818D8A44BEF7F
:100C900006F04DEF06F051EF06F08E0E8C6E80EFF1
:100CA00005F080EF05F000EF00F0000E0F015B6F24
:100CB000F00E926E000E5C6F000E936E000E5E6F73
:100CC000000E956E740ED36E1200066A056A046AF1
:100CD000036A026A016A000EF86E080EF76E0001E0
:040CE0007EEF05F0AE
:020000040020DA
:08000000FFFFFFFFFFFFFFFF00
:020000040030CA
:0E00000002285F3CFFD185FF0FC00FE00F40CC
:00000001FF
