:020000040000FA
:04000000CCEF3FF012
:107F98000001D8EF3FF0000E0F015B6F9298929EA0
:107FA800000E5C6F93881200CFEC3FF081B8DFEFD2
:107FB8003FF0E1EF3FF0E4EF3FF0899EE5EF3FF05F
:107FC800898E8988020E026E450E016EAA0EE82E71
:107FD800FED7012EFCD7022EFAD7020E026E450EEE
:107FE800016EAA0EE82EFED7012EFCD7022EFAD774
:087FF800DAEF3FF000EF00F0AA
:020000040020DA
:08000000FFFFFFFFFFFFFFFF00
:020000040030CA
:0E00000000285F3CFFD385FF0FC00FE00F40CC
:00000001FF
