:020000040000FA
:04000000D6EF3AF00D
:10752000000E0F015B6FF00E926E12003132332BA2
:107530003435362D3738392A4330452F016E8B8448
:107540008B928B8001C08CFF00F000F08B901200BA
:10755000026EEBEC3AF08B948B928B8000F002C0C1
:107560008CFF00F08B901200000E8B6E9490949420
:107570009492380EA8EC3AF00F0EA8EC3AF0010EF7
:10758000A8EC3AF0120001500302F3CF05F0F4CF5B
:1075900006F001500402F350062602500302F35095
:1075A000062605C001F006C002F012002C0EF66E91
:1075B000750EF76E000EF86E00EE26F010EE10F06D
:1075C0000900F5CFEEFFE550E150FAE1000EF86E4C
:1075D0000001F9EF3DF09568800E016EF9EF3AF089
:1075E0008B948B828B8083CF01F000F08B90800E88
:1075F00001160150D8A4FFEF3AF001EF3BF0F0EF95
:107600003AF0000E956E1200000E066E02BE0DEFEF
:107610003BF00BEF3BF013EF3BF0016C021ED8B0D8
:10762000022A010E066E04BE1AEF3BF018EF3BF083
:107630001EEF3BF0036C041ED8B0042A0350041064
:10764000D8B425EF3BF027EF3BF04BEF3BF0010EBA
:10765000056E2FEF3BF0D89003360436052A04AEB2
:1076600034EF3BF036EF3BF02BEF3BF00350015C87
:1076700004500258D8A03FEF3BF041EF3BF045EFFC
:107680003BF00350015E0450025AD890043203329A
:10769000052E36EF3BF00650D8B451EF3BF053EFD8
:1076A0003BF057EF3BF0016C021ED8B0022A01C03C
:1076B00001F002C002F01200000E066E04BE65EF7B
:1076C0003BF063EF3BF06BEF3BF0036C041ED8B074
:1076D000042A010E066E02BE72EF3BF070EF3BF023
:1076E00078EF3BF0016C021ED8B0022A010E061A98
:1076F000000E086E000E076E03500410D8B483EF1E
:107700003BF085EF3BF0ADEF3BF0010E056E8DEFEA
:107710003BF0D89003360436052A04AE92EF3BF0D6
:1077200094EF3BF089EF3BF0D890073608360350D2
:10773000015C04500258D8A0A0EF3BF0A2EF3BF050
:10774000A7EF3BF00350015E0450025A0780D89027
:1077500004320332052E94EF3BF00650D8B4B3EF59
:107760003BF0B5EF3BF0B9EF3BF0076C081ED8B02B
:10777000082A07C001F008C002F0120009C001F099
:107780000AC002F0000E046E0A0E036E5CEC3BF0C1
:1077900001C00DF002C00EF0F6EF3BF0300E0F6EA0
:1077A0002CEF3CF0310E0F6E2CEF3CF0320E0F6ED2
:1077B0002CEF3CF0330E0F6E2CEF3CF0340E0F6EBE
:1077C0002CEF3CF0350E0F6E2CEF3CF0360E0F6EAA
:1077D0002CEF3CF0370E0F6E2CEF3CF0380E0F6E96
:1077E0002CEF3CF0390E0F6E2CEF3CF00DC00BF07F
:1077F0000EC00CF00C50000AD8B401EF3CF02CEF96
:107800003CF00B50000AD8B4CEEF3BF0010AD8B4DC
:10781000D2EF3BF0030AD8B4D6EF3BF0010AD8B45C
:10782000DAEF3BF0070AD8B4DEEF3BF0010AD8B438
:10783000E2EF3BF0030AD8B4E6EF3BF0010AD8B41C
:10784000EAEF3BF00F0AD8B4EEEF3BF0010AD8B4F0
:10785000F2EF3BF02CEF3CF00F50120007C001F0AC
:1078600008C002F0000E046E0A0E036E04EC3BF03A
:1078700001C00BF002C00CF070EF3CF0300E0D6E4A
:107880000D50A6EF3CF0310E0D6E0D50A6EF3CF002
:10789000320E0D6E0D50A6EF3CF0330E0D6E0D50F6
:1078A000A6EF3CF0340E0D6E0D50A6EF3CF0350EF9
:1078B0000D6E0D50A6EF3CF0360E0D6E0D50A6EF7E
:1078C0003CF0370E0D6E0D50A6EF3CF0380E0D6EED
:1078D0000D50A6EF3CF0390E0D6E0D50A6EF3CF0AA
:1078E0000BC009F00CC00AF00A50000AD8B47BEFB4
:1078F0003CF0A6EF3CF00950000AD8B43EEF3CF053
:10790000010AD8B443EF3CF0030AD8B448EF3CF086
:10791000010AD8B44DEF3CF0070AD8B452EF3CF05E
:10792000010AD8B457EF3CF0030AD8B45CEF3CF03E
:10793000010AD8B461EF3CF00F0AD8B466EF3CF00E
:10794000010AD8B46BEF3CF0A6EF3CF0120089902E
:10795000898289848986070E016E7D0EE82EFED706
:10796000012EFCD700F080B8B8EF3CF0BAEF3CF045
:10797000C5EF3CF0070E016E7D0EE82EFED7012EFE
:10798000FCD700F02650F8EF3DF080BACAEF3CF08B
:10799000CCEF3CF0D7EF3CF0070E016E7D0EE82EE9
:1079A000FED7012EFCD700F02750F8EF3DF080BC49
:1079B000DCEF3CF0DEEF3CF0E9EF3CF0070E016E4F
:1079C0007D0EE82EFED7012EFCD700F02850F8EFF0
:1079D0003DF080BEEEEF3CF0F0EF3CF0FBEF3CF012
:1079E000070E016E7D0EE82EFED7012EFCD700F0AB
:1079F0002950F8EF3DF08980899289848986070EA5
:107A0000016E7D0EE82EFED7012EFCD700F080B867
:107A10000CEF3DF00EEF3DF019EF3DF0070E016E5B
:107A20007D0EE82EFED7012EFCD700F02A50F8EF8D
:107A30003DF080BA1EEF3DF020EF3DF02BEF3DF022
:107A4000070E016E7D0EE82EFED7012EFCD700F04A
:107A50002B50F8EF3DF080BC30EF3DF032EF3DF0C1
:107A60003DEF3DF0070E016E7D0EE82EFED7012E94
:107A7000FCD700F02C50F8EF3DF080BE42EF3DF017
:107A800044EF3DF04FEF3DF0070E016E7D0EE82E06
:107A9000FED7012EFCD700F02D50F8EF3DF0898085
:107AA000898289948986070E016E7D0EE82EFED7A5
:107AB000012EFCD700F080B860EF3DF062EF3DF0A2
:107AC0006DEF3DF0070E016E7D0EE82EFED7012E04
:107AD000FCD700F02E50F8EF3DF080BA72EF3DF089
:107AE00074EF3DF07FEF3DF0070E016E7D0EE82E46
:107AF000FED7012EFCD700F02F50F8EF3DF080BCF0
:107B000084EF3DF086EF3DF091EF3DF0070E016E02
:107B10007D0EE82EFED7012EFCD700F03050F8EF96
:107B20003DF080BE96EF3DF098EF3DF0A3EF3DF0C5
:107B3000070E016E7D0EE82EFED7012EFCD700F059
:107B40003150F8EF3DF08980898289848996070E4B
:107B5000016E7D0EE82EFED7012EFCD700F080B816
:107B6000B4EF3DF0B6EF3DF0C1EF3DF0070E016E12
:107B70007D0EE82EFED7012EFCD700F03250F8EF34
:107B80003DF080BAC6EF3DF0C8EF3DF0D3EF3DF0D9
:107B9000070E016E7D0EE82EFED7012EFCD700F0F9
:107BA0003350F8EF3DF080BCD8EF3DF0DAEF3DF018
:107BB000E5EF3DF0070E016E7D0EE82EFED7012E9B
:107BC000FCD700F03450F8EF3DF080BEEAEF3DF016
:107BD000ECEF3DF0F7EF3DF0070E016E7D0EE82E65
:107BE000FED7012EFCD700F03550F8EF3DF0780EAF
:107BF0001200B4EC3AF0760ED36E000E956E8B94B4
:107C00008B928B9090EC3AF0000E226E000E216E5B
:107C1000000E246E000E236E000E206E000E1F6EEE
:107C2000000E166E000E156E000E186E000E176E0A
:107C3000000E1C6E000E1B6E000E1A6E000E196EEA
:107C4000000E1E6E000E1D6EA7EC3CF0256E80AE81
:107C50002CEF3EF02FEF3EF0010E30EF3EF0000E25
:107C6000106E80AC36EF3EF039EF3EF0010E3AEF89
:107C70003EF0000E116E80AA40EF3EF043EF3EF062
:107C8000010E44EF3EF0000E126E80A84AEF3EF067
:107C90004DEF3EF0010E4EEF3EF0000E12101110AF
:107CA0001010E8A056EF3EF058EF3EF09AEF3EF08D
:107CB000450E2518D8B45FEF3EF061EF3EF06FEF50
:107CC0003EF0430E2518D8B468EF3EF06AEF3EF060
:107CD0006FEF3EF08B8025509EEC3AF08B9080AE9B
:107CE00074EF3EF077EF3EF0010E78EF3EF0000EBD
:107CF000106E80AC7EEF3EF081EF3EF0010E82EF21
:107D00003EF0000E116E80AA88EF3EF08BEF3EF041
:107D1000010E8CEF3EF0000E126E80A892EF3EF046
:107D200095EF3EF0010E96EF3EF0000E121011108E
:107D30001010D5E1780E2518D8B4A1EF3EF0A3EFCE
:107D40003EF0DCEF3EF02B0E2518D8B4AAEF3EF043
:107D5000ACEF3EF0DCEF3EF02D0E2518D8B4B3EFBB
:107D60003EF0B5EF3EF0DCEF3EF02A0E2518D8B419
:107D7000BCEF3EF0BEEF3EF0DCEF3EF02F0E2518DC
:107D8000D8B4C5EF3EF0C7EF3EF0DCEF3EF0155043
:107D90001610D8A4CEEF3EF0D0EF3EF0DCEF3EF070
:107DA000D00E2524216E226AFF0E2222000E166EAE
:107DB000010E156E36EF3FF0780E2518D8B4E3EFBC
:107DC0003EF0E5EF3EF036EF3FF02B0E2518D8B42D
:107DD000ECEF3EF0EEEF3EF036EF3FF02D0E2518C3
:107DE000D8B4F5EF3EF0F7EF3EF036EF3FF02A0E55
:107DF0002518D8B4FEEF3EF000EF3FF036EF3FF02D
:107E00002F0E2518D8B407EF3FF009EF3FF036EFFB
:107E10003FF017501810D8A410EF3FF012EF3FF0CA
:107E200036EF3FF0D00E2524236E246AFF0E242265
:107E3000000E186E010E176E36EF3FF0000E1C6E2E
:107E4000010E1B6E53EF3FF0000E1C6E020E1B6EF8
:107E500053EF3FF0000E1C6E030E1B6E53EF3FF00E
:107E6000000E1C6E040E1B6E53EF3FF02550106E7B
:107E7000116A1150000AD8B440EF3FF053EF3FF0C1
:107E800010502A0AD8B42AEF3FF0010AD8B41EEFE6
:107E90003FF0060AD8B424EF3FF0020AD8B430EF1E
:107EA0003FF053EF3FF0430E2518D8A45AEF3FF0B0
:107EB0005CEF3FF0B3EF3FF0C00EA8EC3AF091EF6B
:107EC0003FF0235021241F6E24502220206EAFEF5C
:107ED0003FF02350215C1F6E24502258206EAFEFDC
:107EE0003FF021C001F022C002F023C003F024C003
:107EF00004F0C3EC3AF001C01FF002C020F0AFEF75
:107F00003FF021C001F022C002F023C003F024C0E2
:107F100004F05CEC3BF001C01FF002C020F0AFEFBA
:107F20003FF01BC010F01CC011F01150000AD8B473
:107F30009CEF3FF0AFEF3FF01050010AD8B461EF73
:107F40003FF0030AD8B469EF3FF0010AD8B471EFEB
:107F50003FF0070AD8B481EF3FF0AFEF3FF0000EDB
:107F60001A6E010E196E19041A10D8A4BAEF3FF058
:107F7000BCEF3FF0F0EF3FF01EBECAEF3FF01E50E7
:107F800007E1020E1D5CD8B0C8EF3FF0CAEF3FF02A
:107F9000F0EF3FF01D041E10D8A4D1EF3FF0D3EF57
:107FA0003FF0EEEF3FF01FC009F020C00AF0BEEC3A
:107FB0003BF0136E8B8013509EEC3AF08B90140EB6
:107FC000A8EC3AF01FC007F020C008F02EEC3CF0FF
:107FD000146E8B8014509EEC3AF08B901D4A1E2A32
:107FE000450E2518D8A4F7EF3FF0F9EF3FF024EF46
:107FF0003EF0010EA8EC3AF00CEF3EF000EF00F07E
:020000040020DA
:08000000FFFFFFFFFFFFFFFF00
:020000040030CA
:0E00000002285F3CFFD185FF0FC00FE00F40CC
:00000001FF
